:020000040800F2
:1000000000000820150A0008910900089909000855
:10001000A1090008A9090008B109000800000000B2
:10002000000000000000000000000000B909000806
:10003000C709000800000000D5090008E30900080E
:10004000650A0008650A0008650A0008650A0008D4
:10005000650A0008650A0008650A0008650A0008C4
:10006000650A0008650A0008650A0008650A0008B4
:10007000650A0008650A0008650A0008650A0008A4
:10008000650A0008650A0008650A0008650A000894
:10009000650A0008650A0008650A0008650A000884
:1000A000650A0008650A0008650A0008650A000874
:1000B000650A0008650A0008650A0008650A000864
:1000C000650A0008650A0008650A0008650A000854
:1000D000650A0008650A0008650A0008650A000844
:1000E000650A0008650A0008650A0008650A000834
:1000F000650A0008650A0008650A0008650A000824
:10010000650A0008650A0008650A0008650A000813
:10011000650A0008650A0008650A0008650A000803
:10012000650A0008650A0008650A0008650A0008F3
:10013000650A0008650A0008650A0008650A0008E3
:10014000650A0008650A0008650A0008650A0008D3
:10015000650A0008650A0008650A0008650A0008C3
:10016000650A0008650A0008650A0008650A0008B3
:10017000650A0008650A0008650A0008000000001A
:10018000650A0008650A0008650A0008650A000893
:10019000650A0008650A0008650A0008650A000883
:1001A000650A0008650A0008650A0008650A000873
:1001B000650A0008650A0008650A0008650A000863
:1001C000650A0008650A000800000000650A0008CA
:1001D000650A0008650A0008650A0008650A000843
:1001E000650A0008650A0008650A0008650A000833
:0801F000650A0008650A000819
:1001F80010B5054C237833B9044B13B10448AFF359
:1002080000800123237010BD0C00002000000000B6
:10021800F81B000808B5034B1BB103490348AFF3AB
:10022800008008BD0000000010000020F81B000836
:1002380053B94AB9002908BF00281CBF4FF0FF3145
:100248004FF0FF3000F06AB9ADF1080C6DE904CE4B
:1002580000F006F8DDF804E0DDE9022304B0704799
:100268002DE9F047089D0C46002B4ED194468C454D
:100278008646B2FA82F262D94AB1C2F120039140AD
:1002880020FA03F30CFA02FC194300FA02FE4FEAC3
:100298001C471FFA8CF6B1FBF7F44FEA1E4307FB25
:1002A800141143EA014304FB06F199420AD91CEBF5
:1002B800030304F1FF3080F01281994240F20F816C
:1002C800023C6344591A1FFA8EF3B1FBF7F007FB9F
:1002D800101143EA014300FB06F69E420AD91CEBC3
:1002E800030300F1FF3180F0FC809E4240F2F98068
:1002F800634402389B1B40EA044000211DB1D340EF
:100308000022C5E90032BDE8F0878B4205D90DB15E
:10031800C5E9000100210846F5E7B3FA83F1002991
:1003280046D1A34202D39042C0F0F080861A64EB13
:1003380003030120002DE6D0C5E90063E3E7002AA6
:1003480040F09080A1EB0C044FEA1C481FFA8CF790
:100358000121B4FBF8F64FEA1E4308FB164443EAB2
:10036800044307FB06F0984208D91CEB030306F187
:10037800FF3402D2984200F2CD8026461C1A1FFA9A
:100388008EF3B4FBF8F008FB104443EA044300FB87
:1003980007F79F4208D91CEB030300F1FF3402D290
:1003A8009F4200F2B0802046DB1B40EA0640A5E7EA
:1003B800C1F120068B4022FA06F71F4320FA06FCFB
:1003C80004FA01F343EA0C03F44000FA01F8380C8C
:1003D8004FEA1349B4FBF0FE1FFA87FC00FB1E44EA
:1003E80049EA04440EFB0CF9A14502FA01F20AD9C4
:1003F8003C190EF1FF3A80F08480A14540F28180DB
:10040800AEF1020E3C44A4EB09041FFA83F9B4FBD5
:10041800F0F300FB134449EA044403FB0CFCA44535
:1004280007D93C1903F1FF3067D2A44565D9023BCF
:100438003C4443EA0E40A0FB0293A4EB0C049C420C
:10044800CE469C4651D34ED055B1B8EB0E0364EB63
:100458000C0404FA06F6CB401E43CC40C5E9006400
:10046800002150E7C2F1200320FA03F10CFA02FC44
:1004780024FA03F394400C434FEA1C4800FA02FEA6
:100488001FFA8CF7B3FBF8F008FB1031230C43EA92
:10049800014300FB07F1994208D91CEB030300F163
:1004A800FF362CD299422AD9023863445B1AA4B287
:1004B800B3FBF8F108FB113344EA034401FB07F3EB
:1004C800A34208D91CEB040401F1FF3613D2A3425E
:1004D80011D902396444E41A41EA004139E7044673
:1004E800F0E6084606E7C845AED2B9EB020E63EB64
:1004F800070C0138A8E73146EDE7034699E730468F
:10050800D4E7D6467FE7634402384DE706462346DC
:1005180008460FE7023E634430E700BF704700BF5C
:1005280090B587B000AF00F09AFA00F027F800F015
:10053800ABF800F07FF800210D4800F018FC0D4BD7
:100548003C1D0FCB84E80F0000237B617B690533DA
:100558007B61094A7B6993607B6940F68B629342B1
:1005680001D100237B61012000F0D6FAEEE700BF3D
:1005780028000020101C00080074004080B594B0CA
:1005880000AF07F11C0334220021184601F004FBD8
:1005980007F1080300221A605A609A60DA601A614B
:1005A800224B1B6C214A43F0805313641F4B1B6C76
:1005B80003F080537B607B681D4B1B6823F440432A
:1005C8001B4A43F480431360194B1B6803F44043F0
:1005D8003B603B680223FB610123BB621023FB6283
:1005E80000237B6307F11C03184600F037FE03461F
:1005F800002B01D000F05EF90F23BB600023FB60E5
:1006080000233B614FF480537B610023BB6107F1FA
:1006180008030021184601F0CFF80346002B01D04B
:1006280000F048F900BF5037BD4680BD0038024091
:100638000070004080B582B000AF3B4600221A60CF
:100648005A600F4B0F4A1A600D4800F06EFB0346C4
:10065800002B01D000F02EF900233B6000237B60C3
:100668003B4600221946064800F0D8FB0346002BFB
:1006780001D000F01FF900BF0837BD4680BD00BF9C
:10068800280000200074004080B58CB000AF07F14E
:100698001C0300221A605A609A60DA601A617F4B64
:1006A8001B6B7E4A43F0040313637C4B1B6B03F004
:1006B8000403BB61BB69794B1B6B784A43F0800329
:1006C8001363764B1B6B03F080037B617B69734B71
:1006D8001B6B724A43F001031363704B1B6B03F0EF
:1006E80001033B613B696D4B1B6B6C4A43F0020392
:1006F80013636A4B1B6B03F00203FB60FB68674BD9
:100708001B6B664A43F008031363644B1B6B03F0CF
:100718000803BB60BB68614B1B6B604A43F0400336
:1007280013635E4B1B6B03F040037B607B68002206
:1007380044F281015A4800F077FD002240215948CF
:1007480000F072FD4FF40053FB614FF488133B62D5
:1007580000237B6207F11C031946534800F0B8FBDD
:100768003223FB6102233B6200237B620323BB62CB
:100778000B23FB6207F11C0319464B4800F0A8FB4A
:100788008623FB6102233B6200237B620323BB6257
:100798000B23FB6207F11C031946444800F098FB41
:1007A80044F28103FB6101233B6200237B62002347
:1007B800BB6207F11C031946394800F089FB4FF466
:1007C8000053FB6102233B6200237B620323BB626D
:1007D8000B23FB6207F11C031946314800F078FB34
:1007E8004FF44073FB6102233B6200237B620323C7
:1007F800BB620723FB6207F11C0319462C4800F073
:1008080067FB4023FB6101233B6200237B620023DB
:10081800BB6207F11C031946224800F059FB8023EC
:10082800FB6100233B6200237B6207F11C0319462E
:100838001C4800F04DFB4FF4E853FB6102233B6278
:1008480000237B620323BB620A23FB6207F11C03BC
:100858001946164800F03CFB4FF40073FB61002377
:100868003B6200237B6207F11C0319460F4800F026
:100878002FFB4FF42053FB6102233B6200237B6272
:100888000323BB620B23FB6207F11C0319460548CF
:1008980000F01EFB00BF3037BD4680BD0038024067
:1008A8000004024000180240000802400000024014
:1008B800000C024080B400AF72B600BF00BFFDE775
:1008C80080B483B000AF0F4B1B6C0E4A43F08053CB
:1008D80013640C4B1B6C03F080537B607B68094BE3
:1008E8005B6C084A43F480435364064B5B6C03F427
:1008F80080433B603B6800BF0C37BD465DF8047B16
:10090800704700BF0038024080B58AB000AF7860F9
:1009180007F1140300221A605A609A60DA601A61BB
:100928007B681B68154A934223D1154B1B6C144AEC
:1009380043F000531364124B1B6C03F000533B61EC
:100948003B690F4B1B6B0E4A43F0010313630C4BBF
:100958001B6B03F00103FB60FB6810237B6103231F
:10096800BB610023FB6107F114031946054800F039
:10097800AFFA00BF2837BD4680BD00BF00740040F5
:10098800003802400000024080B400AF00BFFDE71D
:1009980080B400AF00BFFDE780B400AF00BFFDE743
:1009A80080B400AF00BFFDE780B400AF00BFFDE733
:1009B80080B400AF00BFBD465DF8047B704780B4CB
:1009C80000AF00BFBD465DF8047B704780B400AF40
:1009D80000BFBD465DF8047B704780B500AF00F0EE
:1009E8007BF800BF80BD000080B400AF064BD3F891
:1009F8008830054A43F47003C2F8883000BFBD460A
:100A08005DF8047B704700BF00ED00E0DFF834D0EC
:100A1800FFF7EAFF0C480D490D4A002302E0D458BD
:100A2800C4500433C4188C42F9D30A4A0A4C002330
:100A380001E013600432A242FBD301F0B5F8FFF7DE
:100A48006FFD704700000820000000200C00002007
:100A5800401C00080C00002040000020FEE780B584
:100A680000AF032000F02EF9002000F005F8FFF792
:100A780027FF0023184680BD80B582B000AF78609C
:100A8800124B1A68124B1B7819464FF47A73B3FB52
:100A9800F1F3B2FBF3F3184600F03BF90346002BE1
:100AA80001D001230EE07B680F2B0AD80022796859
:100AB8004FF0FF3000F011F9064A7B6813600023FD
:100AC80000E0012318460837BD4680BD000000201D
:100AD800080000200400002080B400AF064B1B78FB
:100AE8001A46064B1B681344044A136000BFBD46F0
:100AF8005DF8047B704700BF080000203C00002020
:100B080080B400AF034B1B681846BD465DF8047BF4
:100B1800704700BF3C00002080B584B000AF78600B
:100B2800FFF7EEFFB8607B68FB60FB68B3F1FF3F3F
:100B380005D00A4B1B781A46FB681344FB6000BFBC
:100B4800FFF7DEFF0246BB68D31AFA689A42F7D865
:100B580000BF00BF1037BD4680BD00BF08000020A1
:100B680080B485B000AF78607B6803F00703FB6052
:100B78000B4BDB68BB60BA684FF6FF031340BB60E2
:100B8800FB681A02BB681A43064B1343BB60044A4E
:100B9800BB68D36000BF1437BD465DF8047B70475F
:100BA80000ED00E00000FA0580B400AF044BDB68FC
:100BB8001B0A03F007031846BD465DF8047B70471F
:100BC80000ED00E080B483B000AF03463960FB71EC
:100BD80097F90730002B0ADB3B68DAB20C4997F922
:100BE80007301201D2B20B4483F800230AE03B68B5
:100BF800DAB20849FB7903F00F03043B1201D2B2C1
:100C08000B441A7600BF0C37BD465DF8047B70476D
:100C180000E100E000ED00E080B489B000AFF860CA
:100C2800B9607A60FB6803F00703FB61FB69C3F1F5
:100C38000703042B28BF0423BB61FB690433062B7D
:100C480002D9FB69033B00E000237B614FF0FF32D0
:100C5800BB6902FA03F3DA43BB681A407B699A401E
:100C68004FF0FF317B6901FA03F3D9437B680B40EE
:100C7800134318462437BD465DF8047B70470000CF
:100C880080B582B000AF78607B68013BB3F1807FAC
:100C980001D301230FE00A4A7B68013B53600F210F
:100CA8004FF0FF30FFF78EFF054B00229A60044B90
:100CB80007221A60002318460837BD4680BD00BFCA
:100CC80010E000E080B582B000AF78607868FFF788
:100CD80047FF00BF0837BD4680BD80B586B000AF6E
:100CE8000346B9607A60FB7300237B61FFF75CFF02
:100CF80078617A68B9687869FFF78EFF024697F9D4
:100D08000F3011461846FFF75DFF00BF1837BD4684
:100D180080BD80B582B000AF78607868FFF7B0FF1B
:100D2800034618460837BD4680BD80B582B000AF7F
:100D380078607B68002B01D1012314E07B681B7964
:100D4800DBB2002B05D17B6800225A717868FFF767
:100D5800DBFD7B6802221A717B6800221A617B68BE
:100D680001221A71002318460837BD4680BD80B499
:100D780083B000AF786039607B68002B01D1012314
:100D880046E07B685B79012B01D1022340E07B6858
:100D980001225A717B6802221A717B681B681968E4
:100DA8003B6803F0100301229A407B681B680A43E2
:100DB8001A603B68002B0FD17B681B681B6803F027
:100DC8003C033C2B1DD17B681B685A687B681B68F9
:100DD80042F001025A6014E07B681B681B6803F448
:100DE80070123B6803F010033C2101FA03F39A42A6
:100DF80007D17B681B685A687B681B6842F002024F
:100E08005A607B6801221A717B6800225A7100239C
:100E180018460C37BD465DF8047B704780B489B02E
:100E280000AFF860B9607A600023FB77FB68002B9D
:100E380002D0BB68002B01D1012342E0FB685B793B
:100E4800012B01D102233CE0FB6801225A71FB68A7
:100E580002221A71FB681B681B68BB617B6803F080
:100E6800100340F6FE7202FA03F3DB43BA6913403B
:100E7800BB61BB681A68BB685B6813437B617B68AE
:100E880003F010037A6902FA03F3BA691343BB61EA
:100E9800FB681B68BA691A60FB681B6819687B687D
:100EA80003F01003C02202FA03F3DA43FB681B685D
:100EB8000A401A60FB6801221A71FB6800225A7105
:100EC800FB7F18462437BD465DF8047B7047000059
:100ED80080B489B000AF786039600023FB610023DB
:100EE8007B6100233B610023BB610023FB6175E14B
:100EF8000122FB6902FA03F37B613B681B687A698C
:100F080013403B613A697B699A4240F064813B68CF
:100F18005B6803F00303012B05D03B685B6803F0B3
:100F28000303022B30D17B689B68BB61FB695B00C4
:100F3800032202FA03F3DB43BA691340BB613B683F
:100F4800DA68FB695B0002FA03F3BA691343BB6111
:100F58007B68BA699A607B685B68BB610122FB6940
:100F680002FA03F3DB43BA691340BB613B685B6871
:100F78001B0903F00102FB6902FA03F3BA69134380
:100F8800BB617B68BA695A603B685B6803F003031E
:100F9800032B17D07B68DB68BB61FB695B0003220E
:100FA80002FA03F3DB43BA691340BB613B689A68F2
:100FB800FB695B0002FA03F3BA691343BB617B6800
:100FC800BA69DA603B685B6803F00303022B23D13C
:100FD800FB69DA087B68083253F82230BB61FB6989
:100FE80003F007039B000F2202FA03F3DB43BA69FD
:100FF8001340BB613B681A69FB6903F007039B0058
:1010080002FA03F3BA691343BB61FB69DA087B6828
:101018000832B96943F822107B681B68BB61FB6919
:101028005B00032202FA03F3DB43BA691340BB6196
:101038003B685B6803F00302FB695B0002FA03F399
:10104800BA691343BB617B68BA691A603B685B681D
:1010580003F44033002B00F0BE80664B5B6C654A9E
:1010680043F480435364634B5B6C03F48043FB603D
:10107800FB68614AFB699B08023352F82330BB6165
:10108800FB6903F003039B000F2202FA03F3DB431F
:10109800BA691340BB617B68584A934237D07B6872
:1010A800574A934231D07B68564A93422BD07B688B
:1010B800554A934225D07B68544A93421FD07B6897
:1010C800534A934219D07B68524A934213D07B68A3
:1010D800514A93420DD07B68504A934207D07B68AF
:1010E8004F4A934201D1092312E00A2310E0082352
:1010F8000EE007230CE006230AE0052308E004239A
:1011080006E0032304E0022302E0012300E00023B9
:10111800FA6902F0030292009340BA691343BB6173
:101128003549FB699B080233BA6941F823203D4BD6
:101138009B68BB613B69DB43BA691340BB613B6891
:101148005B6803F48013002B03D0BA693B6913432F
:10115800BB61344ABB699360324BDB68BB613B6956
:10116800DB43BA691340BB613B685B6803F4001357
:10117800002B03D0BA693B691343BB61294ABB6999
:10118800D360284B5B68BB613B69DB43BA6913409A
:10119800BB613B685B6803F40033002B03D0BA697A
:1011A8003B691343BB611F4ABB6953601D4B1B68F6
:1011B800BB613B69DB43BA691340BB613B685B6851
:1011C80003F48033002B03D0BA693B691343BB6136
:1011D800144ABB691360FB690133FB61FB690F2B80
:1011E8007FF686AE00BF00BF2437BD465DF8047B9E
:1011F800704700BF0038024000380140000002403C
:101208000004024000080240000C024000100240A6
:101218000014024000180240001C02400020024056
:1012280000240240003C014080B483B000AF7860E5
:101238000B467B8013467B707B78002B03D07A8823
:101248007B689A6103E07B881A047B689A6100BF17
:101258000C37BD465DF8047B7047000080B586B04A
:1012680000AF78600023FB757B68002B01D1012358
:101278009BE27B681B6803F00103002B00F087806A
:10128800964B9B6803F00C03042B0CD0934B9B6884
:1012980003F00C03082B12D1904B5B6803F4800316
:1012A800B3F5800F0BD18D4B1B6803F40033002B73
:1012B8006CD07B685B68002B68D1012375E27B6882
:1012C8005B68B3F5803F06D1844B1B68834A43F4BF
:1012D800803313602EE07B685B68002B0CD17F4B5A
:1012E8001B687E4A23F4803313607C4B1B687B4A5F
:1012F80023F4802313601DE07B685B68B3F5A02F9F
:101308000CD1764B1B68754A43F480231360734BEA
:101318001B68724A43F4803313600BE06F4B1B6801
:101328006E4A23F4803313606C4B1B686B4A23F4BA
:10133800802313607B685B68002B13D0FFF7E0FB0A
:10134800386108E0FFF7DCFB02463B69D31A642BDF
:1013580001D9032329E2614B1B6803F40033002BF6
:10136800F0D014E0FFF7CCFB386108E0FFF7C8FBCA
:1013780002463B69D31A642B01D9032315E2574B64
:101388001B6803F40033002BF0D100E000BF7B683A
:101398001B6803F00203002B69D0504B9B6803F0D5
:1013A8000C03002B0BD04D4B9B6803F00C03082B50
:1013B8001CD14A4B5B6803F48003002B16D1474BC2
:1013C8001B6803F00203002B05D07B68DB68012B48
:1013D80001D00123E9E1414B1B6823F0F8027B6847
:1013E8001B69DB003D4913430B6040E07B68DB6809
:1013F800002B23D0394B1B68384A43F00103136094
:10140800FFF77EFB386108E0FFF77AFB02463B698D
:10141800D31A022B01D90323C7E1304B1B6803F011
:101428000203002BF0D02D4B1B6823F0F8027B68D9
:101438001B69DB00294913430B6018E0274B1B6825
:10144800264A23F001031360FFF75AFB386108E0CE
:10145800FFF756FB02463B69D31A022B01D9032337
:10146800A3E11E4B1B6803F00203002BF0D17B683D
:101478001B6803F00803002B38D07B685B69002BDE
:1014880019D0164B5B6F154A43F001035367FFF7FA
:1014980037FB386108E0FFF733FB02463B69D31A94
:1014A800022B01D9032380E10C4B5B6F03F002038D
:1014B800002BF0D01AE0094B5B6F084A23F00103B8
:1014C8005367FFF71DFB38610AE0FFF719FB024677
:1014D8003B69D31A022B03D9032366E10038024083
:1014E800924B5B6F03F00203002BEED17B681B6805
:1014F80003F00403002B00F0A4808C4B1B6C03F05A
:101508008053002B0DD1894B1B6C884A43F08053C4
:101518001364864B1B6C03F08053BB60BB680123CC
:10152800FB75834B1B6803F48073002B18D1804B29
:101538001B687F4A43F480731360FFF7E1FA386150
:1015480008E0FFF7DDFA02463B69D31A642B01D99C
:1015580003232AE1764B1B6803F48073002BF0D039
:101568007B689B68012B06D1704B1B6F6F4A43F059
:10157800010313672DE07B689B68002B0CD16B4B34
:101588001B6F6A4A23F001031367684B1B6F674A96
:1015980023F0040313671CE07B689B68052B0CD1C0
:1015A800624B1B6F614A43F0040313675F4B1B6F69
:1015B8005E4A43F0010313670BE05C4B1B6F5B4A09
:1015C80023F001031367594B1B6F584A23F0040398
:1015D80013677B689B68002B15D0FFF791FA386179
:1015E8000AE0FFF78DFA02463B69D31A41F28832C6
:1015F800934201D90323D8E04C4B1B6F03F002033D
:10160800002BEED014E0FFF77BFA38610AE0FFF711
:1016180077FA02463B69D31A41F28832934201D9DC
:101628000323C2E0414B1B6F03F00203002BEED1F2
:10163800FB7D012B05D13D4B1B6C3C4A23F08053AD
:1016480013647B689B69002B00F0AE80374B9B6866
:1016580003F00C03082B6DD07B689B69022B4BD1E0
:10166800324B1B68314A23F080731360FFF748FA46
:10167800386108E0FFF744FA02463B69D31A022BA7
:1016880001D9032391E0294B1B6803F00073002B59
:10169800F0D17B68DA697B681B6A1A437B685B6AEE
:1016A8009B011A437B689B6A5B08013B1B041A4336
:1016B8007B68DB6A1B061A437B681B6B1B071B498D
:1016C80013434B60194B1B68184A43F0807313602F
:1016D800FFF716FA386108E0FFF712FA02463B698D
:1016E800D31A022B01D903235FE0104B1B6803F0C8
:1016F8000073002BF0D057E00C4B1B680B4A23F00B
:1017080080731360FFF7FCF9386108E0FFF7F8F918
:1017180002463B69D31A022B01D9032345E0034B48
:101728001B6803F00073002BF0D13DE00038024045
:10173800007000401F4B5B68FB607B689B69012B56
:1017480030D0FB6803F480027B68DB699A4229D1B8
:10175800FB6803F03F027B681B6A9A4222D1FA6851
:1017680047F6C07313407A68526A9201934219D1BE
:10177800FB6803F440327B689B6A5B08013B1B04EF
:101788009A420FD1FB6803F070627B68DB6A1B0624
:101798009A4207D1FB6803F0E0427B681B6B1B078A
:1017A8009A4201D0012300E0002318461837BD46AD
:1017B80080BD00BF0038024080B584B000AF7860BB
:1017C80039600023FB607B68002B01D10123D0E046
:1017D8006A4B1B6803F00F033A689A4210D9674BAB
:1017E8001B6823F00F0265493B6813430B60634B8A
:1017F8001B6803F00F033A689A4201D00123B8E04E
:101808007B681B6803F00203002B20D07B681B68F1
:1018180003F00403002B05D0594B9B68584A43F446
:10182800E05393607B681B6803F00803002B05D026
:10183800534B9B68524A43F460439360504B9B68F8
:1018480023F0F0027B689B684D4913438B607B68EB
:101858001B6803F00103002B40D07B685B68012BF9
:1018680007D1474B1B6803F40033002B15D1012324
:101878007FE07B685B68022B07D1414B1B6803F054
:101888000073002B09D1012373E03D4B1B6803F063
:101898000203002B01D101236BE0394B9B6823F035
:1018A80003027B685B68364913438B60FFF728F9AE
:1018B800F8600AE0FFF724F90246FB68D31A41F200
:1018C8008832934201D9032353E02D4B9B6803F0E0
:1018D8000C027B685B689B009A42EBD1274B1B6824
:1018E80003F00F033A689A4210D2244B1B6823F086
:1018F8000F0222493B6813430B60204B1B6803F01F
:101908000F033A689A4201D0012332E07B681B68D2
:1019180003F00403002B08D0194B9B6823F4E05212
:101928007B68DB68164913438B607B681B6803F090
:101938000803002B09D0124B9B6823F460427B6894
:101948001B69DB000E4913438B6000F021F8024647
:101958000B4B9B681B0903F00F030A49CB5C22FA67
:1019680003F3094A1360094B1B681846FFF784F80C
:10197800002318461037BD4680BD00BF003C02401A
:1019880000380240201C000800000020040000204D
:101998002DE9B04F94B000AF00237B640023FB64B3
:1019A80000233B640023BB64794B9B6803F00C0362
:1019B800082B0DD0082B00F2E180002B02D0042B5D
:1019C80003D0DBE0734BBB64DBE0724BBB64D8E055
:1019D8006F4B5B6803F03F037B646D4B5B6803F4FC
:1019E8008003002B63D06A4B5B689B090022BB63B2
:1019F800FA63BB6BC3F308033B6300237B63D7E93C
:101A08000C4522462B464FF000004FF000015901CB
:101A180041EAD261500102460B462146511A39610A
:101A2800294663EB01037B614FF000024FF000038E
:101A3800D7E904AB59468B01514643EA91635146B5
:101A48008A015146B2EB0108594663EB01094FF090
:101A580000024FF000034FEAC90343EA58734FEA04
:101A6800C80290469946234618EB0303BB602B46F1
:101A780049EB0303FB604FF000024FF00003D7E986
:101A8800024529468B02214643EA915321468A02A0
:101A9800104619467B6C0022BB62FA62D7E90A231A
:101AA800FEF7C6FB02460B461346FB6458E0384B6C
:101AB8005B689B09002218461146C0F308033B6285
:101AC80000237B62D7E9088942464B464FF0000065
:101AD8004FF00001590141EAD261500102460B461C
:101AE8004146B2EB010A494663EB010B4FF0000295
:101AF8004FF000034FEA8B1343EA9A634FEA8A12C6
:101B0800B2EB0A0463EB0B054FF000024FF0000341
:101B1800EB0043EA5473E20014461D464346E318BB
:101B28003B604B4645EB03037B604FF000024FF0F0
:101B38000003D7E9004529468B02214643EA915321
:101B480021468A02104619467B6C0022BB61FA6165
:101B5800D7E90623FEF76CFB02460B461346FB64E7
:101B68000B4B5B681B0C03F0030301335B003B6406
:101B7800FA6C3B6CB2FBF3F3BB6402E0054BBB644D
:101B880000BFBB6C18465037BD46BDE8B08F00BFDC
:101B9800003802400024F40002440346934200D176
:101BA800704703F8011BF9E770B50D4D0D4C641B28
:101BB800A4100026A64209D10B4D0C4C00F018F8D1
:101BC800641BA4100026A64205D170BD55F8043B3D
:101BD80098470136EEE755F8043B98470136F2E797
:101BE800381C0008381C0008381C00083C1C000879
:101BF800F8B500BFF8BC08BC9E467047F8B500BFF2
:081C0800F8BC08BC9E467047C1
:101C100000000000D9040000B20900008B0E000093
:101C2000000000000000000001020304060708098C
:081C300038E6FF7F010000000F
:041C38001D02000881
:041C3C00F9010008A2
:0C1C40000024F40010000000010000006F
:0400000508000A15D0
:00000001FF
